S00C0000534550342E73726563FC
S113000093C00000B2C00000B0C00000AEC0000049
S1130010ACC00000AAC00000A8C00000A6C0000038
S1130020A4C00000A2C00000A0C000009EC0000048
S113003087C300009AC0000098C0000096C000006A
S113004094C0000092C0000090C000008EC0000068
S11300508CC000008AC0000088C0000086C0000078
S113006084C000000C94E5100C9437117EC000008D
S11300707CC000007AC0000078C0000076C0000098
S113008074C0000072C0000070C000006EC00000A8
S11300900C947B110C94CD1168C0000066C0000064
S11300A064C0000062C0000060C000005EC00000C8
S11300B05CC000005AC0000058C0000056C00000D8
S11300C054C0000052C0000050C000000C94111233
S11300D00C9463124AC000000C94A7120C94F912F9
S11300E044C00000F20FF20FF20F29103110461035
S11300F0F20FF20F2910311030D78091271082307F
S113010008F05AD20E946F10F7CFCF93DF931F925B
S1130110CDB7DEB7CE0101960E94760D49810E94CB
S1130120690F0E94BC0FF6CF11241FBECFEFD1E29E
S1130130DEBFCDBF00E00CBF12E0A0E0B2E0EEEA0B
S1130140F6E200E00BBF02C007900D92AA31B1079E
S1130150D9F720E1AAE1B2E001C01D92A33CB207A5
S1130160E1F70E94DC100C9455134ACF0895E6E29F
S1130170F2E0AAE2B2E0B183A08313821282E2ED3C
S1130180FFE0F0932502E09324021382128211828D
S1130190108288EA9DE013969C938E931297ED93B8
S11301A0FC939093210280932002909323028093E6
S11301B0220280E090E890931B0280931A02089533
S11301C0CF93DF93EC01A6E2B2E001C0DF01ED9131
S11301D0FC911197EC17FD07C8F312968D919C9131
S11301E013979D01280F391FC217D30749F42A8199
S11301F03B81820F931F13969C938E931297ED016C
S11302008A819B819E01280F391FE217F307C1F4ED
S11302102091240230912502E217F30771F0228124
S11302203381820F931F9B838A83ED91FC911197F5
S1130230808191819983888305C03983288302C092
S1130240F983E883CA17DB0711F0CD93DC93DF91C0
S1130250CF910895EF92FF920F931F93CF93DF9363
S11302608C01BDD78091240290912502892B09F439
S11302707EDF80911A0290911B0280239123892BA7
S113028009F076C00115110549F0C8010496081754
S1130290190718F000E010E001C08C0101151105E8
S11302A009F469C08091220290912302801791077A
S11302B008F464C0C0912602D0912702E6E2F2E07D
S11302C002C0FE01EC018A819B818017910720F412
S11302D0888199810097A9F7809124029091250241
S11302E0C817D90709F44DC0E080F18084E0E80E16
S11302F0F11C88819981918380832A813B81201B11
S1130300310B2930310548F0CE01800F911FFC01DB
S1130310338322831B830A8353DF2A813B818091A9
S1130320220290912302821B930B909323028093C9
S1130330220240912002509121028417950720F453
S1130340909321028093200280911A0290911B02C3
S1130350282B392B3B832A831982188280911E0211
S113036090911F02019690931F0280931E020BC06E
S1130370E12CF12C08C0E12CF12C05C0E12CF12C6E
S113038002C0E12CF12C0E942F0AE114F10411F4B3
S11303900E947B10C701DF91CF911F910F91FF90B5
S11303A0EF9008950F931F93CF93DF93009789F1F4
S11303B0EC0124974A815B8120911A0230911B023F
S11303C0BA0162237323672B21F168817981672B3A
S11303D001F520953095242335233B832A83FFD6CA
S11303E08A819B812091220230912302820F931FE4
S11303F09093230280932202CE01E2DE80911C02BC
S113040090911D02019690931D0280931C020E94FC
S11304102F0ADF91CF911F910F910895FC0103964C
S1130420928381834FEF5FEFBA01438354836583E3
S11304307683908787839287818710820895FC0151
S11304401386128608950F931F93CF93DF93EB01C6
S1130450088119812A813B810F3F4FEF140724073C
S1130460340721F4FC01A185B28511C0DC01139687
S113047001C0DF011496ED91FC91159740815181E3
S113048062817381041715072607370790F71496BE
S1130490ED91FC911597FD83EC83D783C683BF83CD
S11304A0AE831596DC93CE9314979B878A87FC01C1
S11304B020812F5F2083DF91CF911F910F910895A9
S11304C0CF93DF93FC01A285B385C481D581868156
S11304D097819F838E83C681D781848195819D83F3
S11304E08C8311968D919C911297E817F90731F43A
S11304F08681978112969C938E9311971386128608
S11305008C9181508C938C91DF91CF910895A89513
S113051090EC88E10FB6F894A895809360000FBE24
S1130520909360000895FC01608331977083319744
S1130530108231971082319720E8208331971082FE
S11305403197108231971082779740833197508387
S113055086970895DCDFA0919510B0919610CD9107
S1130560CDBFDD91DEBFFF91EF91DF91CF91BF91C0
S1130570AF919F918F917F916F915F914F913F9137
S11305802F911F910F91FF90EF90DF90CF90BF902C
S1130590AF909F908F907F906F905F904F903F901F
S11305A02F901F900F900CBE0F900BBE0F900FBE9C
S11305B00F90089581E008950F920FB6F8940F926A
S11305C00BB60F920CB60F921F9211242F923F92EA
S11305D04F925F926F927F928F929F92AF92BF924F
S11305E0CF92DF92EF92FF920F931F932F933F933B
S11305F04F935F936F937F938F939F93AF93BF9327
S1130600CF93DF93EF93FF93A0919510B091961041
S11306100DB60D920EB60D920E94260BA091951068
S1130620B0919610CD91CDBFDD91DEBFFF91EF91DA
S1130630DF91CF91BF91AF919F918F917F916F91F6
S11306405F914F913F912F911F910F91FF90EF90E8
S1130650DF90CF90BF90AF909F908F907F906F90DE
S11306605F904F903F902F901F900F900CBE0F9073
S11306700BBE0F900FBE0F9008950F920FB6F89413
S11306800F920BB60F920CB60F921F9211242F9259
S11306903F924F925F926F927F928F929F92AF920E
S11306A0BF92CF92DF92EF92FF920F931F932F93FB
S11306B03F934F935F936F937F938F939F93AF93E6
S11306C0BF93CF93DF93EF93FF93A0919510B091D5
S11306D096100DB60D920EB60D9213BE94D58111DF
S11306E0B5D7A0919510B0919610CD91CDBFDD9165
S11306F0DEBFFF91EF91DF91CF91BF91AF919F91B9
S11307008F917F916F915F914F913F912F911F91A5
S11307100F91FF90EF90DF90CF90BF90AF909F909C
S11307208F907F906F905F904F903F902F901F908D
S11307300F900CBE0F900BBE0F900FBE0F9008953C
S11307409CDF18950FB6F8940F92FC01868D8111E9
S113075002C081E001C080E00F900FBE08950FB683
S1130760F8940F92FC01268D878D281302C081E036
S113077001C080E00F900FBE08950F931F93CF9395
S1130780DF93EC01042F1E8D48A141110CC0888118
S11307909981892B09F042C08C819D810E941B0D97
S11307A01D821C8242C0011117C050E08A819B81C6
S11307B00E94451328A18A819B81820F911D9B83EE
S11307C08A832C813D818217930750F18881998116
S11307D09B838A8380E029C050E08E819F810E94A0
S11307E0451388A190E09195819591092E813F81CF
S11307F0280F391F3F832E834881598124173507D9
S113080030F42C813D81820F931F9F838E830230AD
S113081049F4112349F0115080E007C080E005C07D
S113082080E003C080E001C080E01F5F1E8FDF9185
S1130830CF911F910F910895FC0140A14423A9F089
S113084050E026813781240F351F37832683848126
S113085095812817390720F08081918197838683B9
S1130860CB01668177810C94451308951F93CF9330
S1130870DF93EC010FB6F8940F921AA10AC08B898A
S1130880882349F0CE0143969ED781110E94090D19
S113089011501116A4F38FEF8AA30F900FBE0FB659
S11308A0F8940F9219A10AC08885882349F0CE01D3
S11308B0089689D781110E94090D11501116A4F3CD
S11308C08FEF89A30F900FBEDF91CF911F910895F1
S11308D0CF93DF93EC010FB6F8940F92E881F9817E
S11308E08F8D28A190E030E0829FA001839F500D5E
S11308F0929F500D11244E0F5F1F5D834C831E8EFB
S1130900FB83EA830197289FA001299F500D389FFC
S1130910500D1124CF01840F951F9F838E838FEF79
S113092089A38AA361110AC08885882369F0CE014E
S1130930089649D7882341F03FDE06C0CE010896C9
S11309406DDDCE0143966ADD0F900FBE81E0DF912D
S1130950CF9108950F931F93F801611103C0118380
S1130960008302C051834083878F60A361E0CF017D
S1130970AFDF1F910F910895DF92EF92FF920F93D3
S11309801F93CF93DF93F82EE62ED42E869FC001BB
S1130990112483965FDCEC01009741F08C012D2D2E
S11309A0AC014D5D5F4F6E2D8F2DD4DFCE01DF91F5
S11309B0CF911F910F91FF90EF90DF900895CF9208
S11309C0DF92EF92FF920F931F93CF93DF93CDB7F4
S11309D0DEB729970FB6F894DEBF0FBECDBF7C01FA
S11309E06B012E833F834887598710E00FB6F89434
S11309F00F92F701968D878D981710F00230A9F4A5
S1130A00402FB601C701B9DEF7019389992339F064
S1130A10C7014396D8D6882321F0CEDD02C08111C8
S1130A20CBDD0F900FBE81E046C08E819F81A885EB
S1130A30B985892B8A2B8B2B21F40F900FBE80E074
S1130A403AC0111104C0CE0101966CD711E00F9089
S1130A500FBEC5D30FB6F8940F92F70181A18F3F53
S1130A6009F411A2F70182A18F3F09F412A20F9099
S1130A700FBEBE016A5F7F4FCE01019664D781111C
S1130A8016C0C7016CDE882371F04E815F816885D2
S1130A907985C70108963ED6C701E8DEE0D4811106
S1130AA0A5CF8ADDA3CFC701E1DED9D49FCFC7018B
S1130AB0DDDED5D480E029960FB6F894DEBF0FBEF4
S1130AC0CDBFDF91CF911F910F91FF90EF90DF90F9
S1130AD0CF9008950F93009769F0FC01158214825A
S1130AE011821082168200E020E030E0A90160E06B
S1130AF070E065DF0F910895CF93DF93482F60E096
S1130B0081E03ADFEC01E6DFCE01DF91CF91089579
S1130B10EF92FF920F931F93CF93DF938A01FC010F
S1130B20568D378D531710F02230F1F4422F78018F
S1130B30EC011AA18E8DCE0120DE1F3F79F48B8942
S1130B408823A1F0CE0143963ED6882389F0E11490
S1130B50F10481F081E0F70180830DC0FF24F39458
S1130B60F10EFAA281E007C080E005C081E003C075
S1130B7081E001C081E0DF91CF911F910F91FF903F
S1130B80EF900895CF92DF92EF92FF920F931F930D
S1130B90CF93DF93CDB7DEB729970FB6F894DEBFB6
S1130BA00FBECDBF8C016B012E833F8348875987CD
S1130BB0E12C0FB6F8940F92F801F68CFF2091F017
S1130BC0B601C80139DEFA94F801F68E80858823CF
S1130BD029F0C8010896F7D58111EEDC0F900FBEFD
S1130BE081E04CC08E819F81A885B985892B8A2B91
S1130BF08B2B21F40F900FBE80E040C0E11005C0A4
S1130C00CE0101968FD6EE24E3940F900FBEE7D267
S1130C100FB6F8940F92F80181A18F3F09F411A245
S1130C20F80182A18F3F09F412A20F900FBEBE01FA
S1130C306A5F7F4FCE01019686D6811116C0C80126
S1130C4081DD882371F04E815F8168857985C801D3
S1130C50439660D5C8010ADE02D48111AACFACDC68
S1130C60A8CFC80103DEFBD3A4CFC801FFDDF7D3AF
S1130C70C80168DD882309F49CCF80E029960FB66B
S1130C80F894DEBF0FBECDBFDF91CF911F910F91BE
S1130C90FF90EF90DF90CF900895CF93DF93EC0116
S1130CA00FB6F8940F9289A18F3F09F419A28AA173
S1130CB08F3F09F41AA20F900FBE8E8D811103C0CD
S1130CC0CE0143963ED5CE01D1DDDF91CF9108957B
S1130CD0E0910F10F0911010808181110CC08FEF02
S1130CE09FEFDC018093D90F9093DA0FA093DB0F71
S1130CF0B093DC0F0895E0910F10F091101007806D
S1130D00F085E02D80819181A281B3818093D90FF8
S1130D109093DA0FA093DB0FB093DC0F0895CF9379
S1130D20DF93EC018B8D9C8D3DDBCE013BDBDF91B2
S1130D30CF9108954F925F926F927F928F929F927C
S1130D40AF92BF92CF92DF92EF92FF920F93CF9325
S1130D50DF932C015B014A013901E60165EA70E089
S1130D608B8D9C8D0E944E138B8D9C8D21E0821A5D
S1130D709108880E991EA114B10489F415C0822F1C
S1130D8090E0F501E80FF91F3081DE01A80FB91FCB
S1130D905D963C938081882329F02F5F01C020E079
S1130DA0203168F31CA601C01D8E0A3008F009E04A
S1130DB00A8F0DA71EA6CE01029641DBCE010E9628
S1130DC03EDBDB87CA878AE090E0A0E0B0E0801BCE
S1130DD09109A109B1098E879F87A88BB98BDF8BF5
S1130DE0CE8B84E0FE01BF96DF011D928A95E9F760
S1130DF01BAAA301B201C40196DB99838883E11481
S1130E00F10419F0F701D183C083DF91CF910F91E1
S1130E10FF90EF90DF90CF90BF90AF909F908F9016
S1130E207F906F905F904F900895CF93C0E008C07B
S1130E302BE0C29FC0011124895D9F4EEFDACF5F82
S1130E40CA30B0F38CE190E1E9DA81E190E1E6DACD
S1130E5082E090E1E3DA87EF9FE0E0DA8BEE9FE057
S1130E60DDDA8CE190E19093101080930F1081E112
S1130E7090E190930E1080930D10CF910895CF932D
S1130E80DF93EC010FB6F8940F928091EA0F8F5F15
S1130E908093EA0F8091951090919610892B51F4CC
S1130EA0D0939610C09395108091EA0F813091F4FD
S1130EB0BCDF10C08091E40F81110CC0E09195104B
S1130EC0F0919610928D8A8D891720F0D093961008
S1130ED0C09395108091DD0F8F5F8093DD0FEA8DB5
S1130EE08091E50F8E1710F4E093E50F8BE08E9F51
S1130EF0F0011124E95DFF4E0180F281E02DFF83B2
S1130F00EE832681378139872887A681B7819E01A0
S1130F102E5F3F4F15963C932E9314973783268369
S1130F20EA8D8E9FF0011124E95DFF4EFD87EC8769
S1130F3080818F5F80830F900FBE8091E40F8823A0
S1130F4049F0E0919510F0919610928D8A8D981742
S1130F5008F432DBDF91CF910895CF93DF931AC069
S1130F600FB6F8940F92E091FE0FF091FF0FC08539
S1130F70D185CE010296A4DA8091EA0F8150809344
S1130F80EA0F8091F60F81508093F60F0F900FBEF9
S1130F90CE01C5DE8091F60F8111E2CFDF91CF91B2
S1130FA008958F929F92AF92BF92CF92DF92EF9269
S1130FB0FF92CF93DF936B017C01C42F8090E60FE7
S1130FC09090E70FA090E80FB090E90F80919510F2
S1130FD090919610029674DA8FEFC816D806E80638
S1130FE0F806B1F5CC23A1F1EBEEFFE0A181B281CB
S1130FF0C0919510D0919610BF83AE83C091951087
S1131000D091961016968D919C9117979987888701
S11310101696CD91DC91179780919510909196102A
S113102002969D838C8380919510909196100296E0
S113103017969C938E931697A0919510B091961045
S11310401D96FC93EE931C9780818F5F80833DC037
S1131050C80CD91CEA1CFB1CE0919510F091961069
S1131060C282D382E482F582C814D904EA04FB0460
S113107060F4609195107091961080910D1090918C
S11310800E106E5F7F4FDFD920C060919510709174
S1131090961080910F10909110106E5F7F4FD3D9EE
S11310A08091D90F9091DA0FA091DB0FB091DC0FF2
S11310B0C816D906EA06FB0640F4C092D90FD092AE
S11310C0DA0FE092DB0FF092DC0FDF91CF91FF900B
S11310D0EF90DF90CF90BF90AF909F908F90089546
S11310E02F923F924F925F926F927F928F929F9234
S11310F0AF92BF92CF92DF92EF92FF920F93CF9372
S1131100DF933C011B014A012901CA01A3D86C01E8
S1131110892B61F084E390E09DD8EC01892B19F0D0
S1131120DC8ECB8E05C0C6013DD902C0C0E0D0E044
S1131130209761F0A12CB12C6E019201A401B101A0
S1131140C301F8DDCE019BDE81E001C08FEFDF91AA
S1131150CF910F91FF90EF90DF90CF90BF90AF9021
S11311609F908F907F906F905F904F903F902F90C3
S11311700895EF92FF920F930F2EF7EDEF2EFFE0FD
S1131180FF2EF02D00E020E030E040EC50E061E084
S113119072E08CE790E0A4DF813009F431D581302E
S11311A0C1F4F8948FEF9FEFDC018093D90F9093F3
S11311B0DA0FA093DB0FB093DC0F81E08093E40F90
S11311C01092E60F1092E70F1092E80F1092E90FB9
S11311D0C1D9809100020F91FF90EF900895809102
S11311E0D60F8F5F8093D60F08950FB6F8940F92A1
S11311F06091E60F7091E70F8091E80F9091E90FED
S11312000F900FBE0895CF92DF92EF92FF92CF938B
S1131210DF938091D60F811105C1C090E60FD09065
S1131220E70FE090E80FF090E90F8FEFC81AD80AA3
S1131230E80AF80AC092E60FD092E70FE092E80FAE
S1131240F092E90FC114D104E104F104B1F48091E6
S11312500F109091101020910D1030910E103093BA
S1131260101020930F1090930E1080930D10809106
S1131270DE0F8F5F8093DE0F2BDD8091D90F90916D
S1131280DA0FA091DB0FB091DC0FC816D906EA067D
S1131290FB0620F480E0B2C081E001C080E0E09170
S11312A00F10F0911010908191110CC04FEF5FEF6F
S11312B0BA014093D90F5093DA0F6093DB0F709308
S11312C0DC0F9CC0E0910F10F09110100780F085A6
S11312D0E02D0084F185E02D428153816481758184
S11312E0C416D506E606F70648F44093D90F509382
S11312F0DA0F6093DB0F7093DC0F80C0A485B58593
S1131300C681D781208531853F832E83C085D185D1
S1131310268137813D832C8311964D915C911297E0
S11313209F012E5F3F4F4217530731F4408551858B
S113133012965C934E931197158614869C91915046
S11313409C93A08DB18D109709F1C289D3894489EA
S113135055895F834E83C489D589428953895D83C6
S11313604C8311966D917C911297AF01425F5F4F50
S11313706417750731F44489558912965C934E932A
S11313801197118E108E9C9191509C93A28D9091E7
S1131390E50F9A1710F4A093E50F9BE09A9FD001F4
S11313A01124A95DBF4E11960D90BC91A02DB78359
S11313B0A68316964D915C91179751874087169690
S11313C0CD91DC9117973D832C8317963C932E93F4
S11313D01697A28D9A9FD0011124A95DBF4EB5879F
S11313E0A4879C919F5F9C93228DE0919510F0912E
S11313F09610928D291708F04FCF51CFE091951098
S1131400F0919610E28D9BE0E99FF0011124E95DD3
S1131410FF4E9081923008F081E09091DF0F91119E
S113142016C016C08091E00F9091E10FA091E20FD9
S1131430B091E30F0196A11DB11D8093E00F90932D
S1131440E10FA093E20FB093E30F80E001C081E0CD
S1131450DF91CF91FF90EF90DF90CF900895CF92DE
S1131460DF92EF92FF92CF93DF930FB6F8940F922F
S11314708091D60F81508093D60F8091D60F811121
S1131480BEC08091EA0F811188C0BCC0E0910910F0
S1131490F0910A100084F185E02DA08DB18DC289F0
S11314A0D389848995899F838E83C489D5898289C8
S11314B093899D838C8311962D913C911297CF0132
S11314C00E962817390731F48489958912969C93CE
S11314D08E931197118E108E8C9181508C93A485CC
S11314E0B585C681D781808591859F838E83C0858C
S11314F0D185868197819D838C8311968D919C9152
S113150012979F012E5F3F4F8217930731F4808516
S1131510918512969C938E931197158614868C91BF
S113152081508C93A28D8091E50F8A1710F4A093BB
S1131530E50F8BE08A9FD0011124A95DBF4E11965F
S11315400D90BC91A02DB783A68316964D915C9106
S11315501797518740871696CD91DC9117973D8355
S11315602C8317963C932E931697A28D8A9FD001B5
S11315701124A95DBF4EB587A4878C918F5F8C938E
S1131580928DA0919510B09196105A968C919817BF
S113159030F081E08093DF0F02C0E0E0F0E0809162
S11315A00210811173CFEF2B09F092DBC090E00F92
S11315B0D090E10FE090E20FF090E30FC114D1045A
S11315C0E104F104A1F01FDE882319F081E0809387
S11315D0DF0F81E0C81AD108E108F108A1F71092E1
S11315E0E00F1092E10F1092E20F1092E30F80913E
S11315F0DF0F882331F00E94DC0281E003C080E029
S113160001C080E00F900FBEDF91CF91FF90EF906B
S1131610DF90CF900895CF92DF92EF92FF926B010B
S11316207C01672B682B692B39F0D9DD40E0C701B9
S1131630B601B7DC14DF01C080E0811102C00E9452
S1131640DC02FF90EF90DF90CF9008958091D60F49
S1131650882321F081E08093DF0F08951092DF0F3B
S1131660E0919510F091961020813181E0919510D0
S1131670F0919610838D948D8217930758F06091A2
S1131680951070919610635E7F4F809195109091A4
S113169096103DD58091E50F01C08150282F30E090
S11316A09BE0929FF001939FF00D1124E95DFF4EA2
S11316B09081992391F39BE0929FA001939F500DF9
S11316C01124DF010180F281E02D0480F581E02DF9
S11316D01296FC93EE931197465D5F4EE417F5075F
S11316E029F444815581FD01528341839BE0929FFB
S11316F0F001939FF00D1124E95DFF4E0180F2810A
S1131700E02D208531853093961020939510809399
S1131710E50F0895CF92DF92EF92FF926A017B0169
S11317206091951070919610625F7F4F0E94230222
S113173041E0C701B60135DCFF90EF90DF90CF9018
S11317400895CF93DF93FC01CB01BA01A181B2814B
S1131750C0919510D0919610BB8BAA8BC091951017
S1131760D091961016964D915C9117975D8B4C8B8A
S11317701696CD91DC911797409195105091961043
S1131780425F5F4F5D834C8340919510509196105A
S1131790425F5F4F17965C934E931697A0919510F6
S11317A0B09196105996FC93EE93589730813F5F11
S11317B03083222319F06FEF7FEFCB01422FF1DB4F
S11317C0DF91CF910895CF93DF93DC011796ED91CC
S11317D0FC9118970084F185E02DA08DB18DC2890C
S11317E0D389848995899F838E83C489D589828985
S11317F093899D838C8311968D919C9112979F015F
S1131800225F3F4F8217930731F48489958912969A
S11318109C938E931197118E108E8C9181508C9382
S11318208091D60F811152C0A485B585C681D78118
S1131830808591859F838E83C085D185868197819C
S11318409D838C8311968D919C9112979F012E5F9D
S11318503F4F8217930731F48085918512969C93AC
S11318608E931197158614868C9181508C93A28D3A
S11318708091E50F8A1710F4A093E50F8BE08A9FFF
S1131880D0011124A95DBF4E11960D90BC91A02DDD
S1131890B783A68316964D915C911797518740871D
S11318A01696CD91DC9117973D832C8317963C9324
S11318B02E931697A28D8A9FD0011124A95DBF4E45
S11318C0B587A4878C918F5F8C931CC042E050E154
S11318D0DA011196CD91DC911297D38BC28B8E8154
S11318E09F81958B848B8E819F81DC0115963C931F
S11318F02E9314973F832E83518F408FDA018C915E
S11319008F5F8C93928DE0919510F0919610828D5B
S1131910891720F481E08093DF0F01C080E0DF911C
S1131920CF9108952091DE0FFC0120834091E60FB2
S11319305091E70F6091E80F7091E90F4183528352
S11319406383748308958F929F92AF92BF92CF92D4
S1131950DF92EF92FF920F931F93CF93DF93FB01DC
S11319600FB6F8940F92C090E60FD090E70FE09076
S1131970E80FF090E90FDC0111960D911D912D9166
S11319803C91149746015701801A910AA20AB30A9E
S113199040815181628173814F3FBFEF5B076B07C9
S11319A07B0739F1EC01B881A091DE0FBA1759F029
S11319B0C016D106E206F30630F0108211821282BC
S11319C0138281E017C084169506A606B70658F45C
S11319D0481959096A097B094083518362837383D7
S11319E0A1DF80E007C0108211821282138281E09D
S11319F001C080E00F900FBEDF91CF911F910F9136
S1131A00FF90EF90DF90CF90BF90AF909F908F901A
S1131A10089581E08093DF0F08958091E40F882377
S1131A2031F08091D60F811104C082E0089581E0E5
S1131A30089580E008950F931F93CF93DF93FC01E3
S1131A40892B09F449C086A5815086A7228D95A5C6
S1131A50291709F443C0811143C0EF018F010E5FC0
S1131A601F4FC8010E946002EDA5EA8F8AE090E052
S1131A70A0E0B0E08E1B9109A109B1098E879F8770
S1131A80A88BB98B8091E50F8E1710F4E093E50FC6
S1131A908BE08E9FF0011124E95DFF4E0180F281FD
S1131AA0E02DFF83EE832681378139872887A6813D
S1131AB0B78115961C930E93149717830683EA8DAA
S1131AC08E9FF0011124E95DFF4EFD87EC87808134
S1131AD08F5F808381E005C080E003C080E001C0A7
S1131AE080E0DF91CF911F910F910895DC01E09187
S1131AF0A110F091A210808191E0811190E09C935B
S1131B00911108C00780F085E02D60817181828188
S1131B109381089560E070E0CB010895CF92DF9245
S1131B20EF92FF920F931F93FC01428353836483CC
S1131B307583938782870417150726073707C0F034
S1131B400C191D092E093F0986859785A089B1893D
S1131B50081719072A073B0700F5BF016E5F7F4F7F
S1131B6080919F109091A0100E94230280E018C0E1
S1131B700C151D052E053F0528F44C155D056E0555
S1131B807F0568F4BF016E5F7F4F8091A110909133
S1131B90A2100E94230280E003C081E001C081E022
S1131BA01F910F91FF90EF90DF90CF9008950FB6A3
S1131BB0F8940F9280919D1090919E10892BE9F4D6
S1131BC08EEA90E10E940E0283EA90E10E940E02E6
S1131BD08EEA90E19093A2108093A11083EA90E1A1
S1131BE09093A01080939F1040E067E08AE00E94E9
S1131BF0BC0490939E1080939D100F900FBE089587
S1131C00EF92FF920F93D3DF80919D1090919E10DD
S1131C10892B89F00F2EFBE9EF2EF0E1FF2EF02D3A
S1131C2003E020E030E040EC50E066E072E085E85C
S1131C3090E056DA01C080E00F91FF90EF90089594
S1131C408F929F92AF92BF92CF92DF92EF92FF92C8
S1131C500F931F93CF93DF93CDB7DEB727970FB6BC
S1131C60F894DEBF0FBECDBFE0919D10F0919E10A1
S1131C70309781F169832A833B834C835D839F83FF
S1131C808E836630F4F4C9DE823069F400E0A70183
S1131C909601BE016F5F7F4F80919D1090919E10C1
S1131CA00E94DF0418C000E020E030E0A901BE017A
S1131CB06F5F7F4F80919D1090919E100E94DF0472
S1131CC00AC020E0A801BE016F5F7F4FCF010E94D0
S1131CD0880501C080E027960FB6F894DEBF0FBEDA
S1131CE0CDBFDF91CF911F910F91FF90EF90DF90C7
S1131CF0CF90BF90AF909F908F9008958F929F92B6
S1131D00AF92BF92CF92DF92EF92FF920F931F9305
S1131D10CF93DF933BC00780F085E02D80809180D6
S1131D20A280B380C085D1858E010E5F1F4FC8018C
S1131D300E946002EC89FD89CE0119958E8982FF8B
S1131D4025C08E859F85A889B989880D991DAA1DEE
S1131D50BB1D88169906AA06BB0670F48A839B836A
S1131D60AC83BD83DB87CA87B8018091A1109091B1
S1131D70A2100E9423020AC0C12CD12C760100E0DB
S1131D8010E0A501940160E0CE015ADFE091A110BA
S1131D90F091A21080818111BECF80919F1090910B
S1131DA0A0109093A2108093A110F093A010E09340
S1131DB09F10DF91CF911F910F91FF90EF90DF90D3
S1131DC0CF90BF90AF909F908F900895CF92DF9265
S1131DD0EF92FF92CF93DF93EC0107DA6B017C0162
S1131DE08091971090919810A0919910B0919A10A9
S1131DF0C816D906EA06FB0620F480DF81E0888352
S1131E0001C01882C0929710D0929810E092991055
S1131E10F0929A10C701B601DF91CF91FF90EF9035
S1131E20DF90CF9008954F925F926F927F928F923E
S1131E309F92AF92BF92CF92DF92EF92FF920F9355
S1131E401F93CF93DF934B015C0129013A01E09189
S1131E50A110F091A2100780F085E02DC085D185F6
S1131E60CE0102960E9460028E8982FF1BC04E85BD
S1131E705F8568897989480D591D6A1D7B1D750127
S1131E80640193018201CE0149DE882369F0C12CEB
S1131E90D12C760100E010E0A501940160E0CE01B0
S1131EA0CFDE02C08E7F8E8BEC89FD89CE01199521
S1131EB0DF91CF911F910F91FF90EF90DF90CF9022
S1131EC0BF90AF909F908F907F906F905F904F9056
S1131ED008958F929F92AF92BF92CF92DF92EF922A
S1131EE0FF921F93CF93DF931F92CDB7DEB76B01A1
S1131EF07C01142F74D9CE01019668DF4B015C017B
S1131F00898181112BC011110CC08C149D04AE0465
S1131F10BF0438F0A4DAA5019401C701B60183DF38
S1131F201EC0112341F0E0919F10F091A010808118
S1131F3011E0811110E0B701A601481959096A0995
S1131F407B09212F80919D1090919E100E944D0637
S1131F5086DA811104C00E94DC0201C080DA0F908D
S1131F60DF91CF911F91FF90EF90DF90CF90BF90C2
S1131F70AF909F908F900895AF92BF92CF92DF92CF
S1131F80EF92FF920F931F93CF93DF93CDB7DEB7FA
S1131F9028970FB6F894DEBF0FBECDBF81C08981EC
S1131FA088230CF47DC0AE80BF80D5011C968D9132
S1131FB09C911D97892B21F0C50102960E94600215
S1131FC0CE01089603DF8B019C01E9810E2E000CE3
S1131FD0FF0BEA30F10508F063C08827EE58FF4F85
S1131FE08F4F4BC3F50186898160868BCA80DB8065
S1131FF0EC80FD8046855785608971894C0D5D1D97
S11320006E1D7F1DC5018ADD882309F449C0D501F1
S11320105496ED91FC915597C5011995F501868962
S113202082FF3EC04A815B816C817D818685978574
S1132030A089B1899A01AB01280F391F4A1F5B1F80
S1132040C12CD12C760100E010E060E0C501F8DD80
S113205027C0D50156968C9156978E7F56968C93B1
S11320601FC0F50186898160868B4A815B816C8102
S11320707D8146875787608B718B400F511F621F8C
S1132080731F68017901C50149DD0AC0F50186891C
S113209081FD04C0C5010E94D20102C08E7F868BDF
S11320A020E030E0A901BE016F5F7F4F80919D1059
S11320B090919E100E94C205811171CF28960FB68F
S11320C0F894DEBF0FBECDBFDF91CF911F910F916A
S11320D0FF90EF90DF90CF90BF90AF900895089558
S11320E084B1806884B985B1806885B9089583B165
S11320F0806883B90895F4DF2FEF80E792E02150E0
S113210080409040E1F700C00000F1DFF5CFE8DF48
S11321102FEF87EA91E6215080409040E1F700C01C
S11321200000E5DFF5CF6AE070E080E090E073DA6C
S113213092B181E0892782B9F6CF62E370E080E052
S113214090E069DA82B1805882B9F7CFEF92FF92BA
S11321500F938091C1109091C210892B89F481E072
S11321600E947C059093C2108093C110009741F0A7
S113217000E020E030E0A90160E070E00E94DF04AC
S1132180E12CF12C02E020E030E040EC50E06EE085
S113219072E083E990E10E94700801E020E030E001
S11321A040EC50E064E172E08DE990E10E94700837
S11321B00F91FF90EF90089581B1816881B90E94D9
S11321C0B600C4DF0E94B908FFCF1F920F920FB66A
S11321D00F9211240BB60F922F933F934F935F935B
S11321E06F937F938F939F93AF93BF93CF93DF931B
S11321F0EF93FF93A091B910B091BA10109711F119
S11322006091C6001496ED91FC911597938182819B
S11322102581981B92238481981761F083812695E8
S11322202823C081D181C20FD11D68838F5F95811E
S1132230892383831696ED91FC911797309711F0BB
S1132240CD011995FF91EF91DF91CF91BF91AF919E
S11322509F918F917F916F915F914F913F912F91BA
S11322600F900BBE0F900FBE0F901F9018951F92EA
S11322700F920FB60F9211240BB60F922F938F93D8
S11322809F93AF93BF93EF93FF93E091B910F091B5
S1132290BA103097B9F00280F381E02D93818281E6
S11322A09817B1F092818581282F26952923A08142
S11322B0B181A20FB11D2C919F5F8923828320934A
S11322C0C6000BC0E1ECF0E080818F7D808305C007
S11322D0E1ECF0E080818F7D8083FF91EF91BF91ED
S11322E0AF919F918F912F910F900BBE0F900FBEC6
S11322F00F901F9018951F920F920FB60F921124F2
S11323000BB60F922F933F934F935F936F937F93EB
S11323108F939F93AF93BF93CF93DF93EF93FF93E9
S1132320A091BB10B091BC10109711F16091CE0038
S11323301496ED91FC911597938182812581981BC8
S113234092238481981761F0838126952823C08184
S1132350D181C20FD11D68838F5F958189238383C7
S11323601696ED91FC911797309711F0CD011995C0
S1132370FF91EF91DF91CF91BF91AF919F918F9199
S11323807F916F915F914F913F912F910F900BBE71
S11323900F900FBE0F901F9018951F920F920FB6BB
S11323A00F9211240BB60F922F938F939F93AF9399
S11323B0BF93EF93FF93E091BB10F091BC10309763
S11323C0B9F00280F381E02D938182819817B1F0F6
S11323D092818581282F26952923A081B181A20F7E
S11323E0B11D2C919F5F892382832093CE000BC063
S11323F0E9ECF0E080818F7D808305C0E9ECF0E0BA
S113240080818F7D8083FF91EF91BF91AF919F91E8
S11324108F912F910F900BBE0F900FBE0F901F90B6
S113242018951F920F920FB60F9211240BB60F92AC
S11324302F933F934F935F936F937F938F939F93C8
S1132440AF93BF93CF93DF93EF93FF93A091BD100E
S1132450B091BE10109711F16091D6001496ED91D1
S1132460FC911597938182812581981B9223848105
S1132470981761F0838126952823C081D181C20FEA
S1132480D11D68838F5F9581892383831696ED918F
S1132490FC911797309711F0CD011995FF91EF91A9
S11324A0DF91CF91BF91AF919F918F917F916F9168
S11324B05F914F913F912F910F900BBE0F900FBEE4
S11324C00F901F9018951F920F920FB60F92112420
S11324D00BB60F922F938F939F93AF93BF93EF936A
S11324E0FF93E091BD10F091BE103097B9F00280D7
S11324F0F381E02D938182819817B1F092818581D7
S1132500282F26952923A081B181A20FB11D2C91DA
S11325109F5F892382832093D6000BC0E1EDF0E016
S113252080818F7D808305C0E1EDF0E080818F7D27
S11325308083FF91EF91BF91AF919F918F912F91E4
S11325400F900BBE0F900FBE0F901F9018951F9207
S11325500F920FB60F9211240BB60F922F933F9345
S11325604F935F936F937F938F939F93AF93BF9397
S1132570CF93DF93EF93FF93A091BF10B091C0105E
S1132580109711F1609136011496ED91FC91159715
S1132590938182812581981B92238481981761F00D
S11325A0838126952823C081D181C20FD11D6883E0
S11325B08F5F9581892383831696ED91FC911797FC
S11325C0309711F0CD011995FF91EF91DF91CF91E3
S11325D0BF91AF919F918F917F916F915F914F9137
S11325E03F912F910F900BBE0F900FBE0F901F9035
S11325F018951F920F920FB60F9211240BB60F92DB
S11326002F938F939F93AF93BF93EF93FF93E09197
S1132610BF10F091C0103097B9F00280F381E02D23
S1132620938182819817B1F092818581282F269514
S11326302923A081B181A20FB11D2C919F5F892311
S11326408283209336010BC0E1E3F1E080818F7D2A
S1132650808305C0E1E3F1E080818F7D8083FF9179
S1132660EF91BF91AF919F918F912F910F900BBEDE
S11326700F900FBE0F901F901895EE0FFF1F881F2D
S11326808BBF0790F691E02D1994FB01DC0102C089
S113269001900D9241505040D8F70895DC0101C0DB
S11126A06D9341505040E0F70895F894FFCF39
S11326AE0949444C4500546D7220537663005461BD
S10D26BE736B31005461736B32003A
S9030000FC
